{"abi":[{"type":"constructor","inputs":[{"name":"_larry","type":"address","internalType":"address"},{"name":"_name","type":"string","internalType":"string"},{"name":"_symbol","type":"string","internalType":"string"}],"stateMutability":"nonpayable"},{"type":"function","name":"BorrowedByDate","inputs":[{"name":"","type":"uint256","internalType":"uint256"}],"outputs":[{"name":"","type":"uint256","internalType":"uint256"}],"stateMutability":"view"},{"type":"function","name":"CollateralByDate","inputs":[{"name":"","type":"uint256","internalType":"uint256"}],"outputs":[{"name":"","type":"uint256","internalType":"uint256"}],"stateMutability":"view"},{"type":"function","name":"FEE_ADDRESS","inputs":[],"outputs":[{"name":"","type":"address","internalType":"address"}],"stateMutability":"view"},{"type":"function","name":"LARRYtoTOKENS","inputs":[{"name":"value","type":"uint256","internalType":"uint256"}],"outputs":[{"name":"","type":"uint256","internalType":"uint256"}],"stateMutability":"view"},{"type":"function","name":"LARRYtoTOKENSCeil","inputs":[{"name":"value","type":"uint256","internalType":"uint256"}],"outputs":[{"name":"","type":"uint256","internalType":"uint256"}],"stateMutability":"view"},{"type":"function","name":"Loans","inputs":[{"name":"","type":"address","internalType":"address"}],"outputs":[{"name":"collateral","type":"uint256","internalType":"uint256"},{"name":"borrowed","type":"uint256","internalType":"uint256"},{"name":"endDate","type":"uint256","internalType":"uint256"},{"name":"numberOfDays","type":"uint256","internalType":"uint256"}],"stateMutability":"view"},{"type":"function","name":"TOKENStoLARRY","inputs":[{"name":"value","type":"uint256","internalType":"uint256"}],"outputs":[{"name":"","type":"uint256","internalType":"uint256"}],"stateMutability":"view"},{"type":"function","name":"acceptOwnership","inputs":[],"outputs":[],"stateMutability":"nonpayable"},{"type":"function","name":"allowance","inputs":[{"name":"owner","type":"address","internalType":"address"},{"name":"spender","type":"address","internalType":"address"}],"outputs":[{"name":"","type":"uint256","internalType":"uint256"}],"stateMutability":"view"},{"type":"function","name":"approve","inputs":[{"name":"spender","type":"address","internalType":"address"},{"name":"value","type":"uint256","internalType":"uint256"}],"outputs":[{"name":"","type":"bool","internalType":"bool"}],"stateMutability":"nonpayable"},{"type":"function","name":"backingToken","inputs":[],"outputs":[{"name":"","type":"address","internalType":"contract IERC20"}],"stateMutability":"view"},{"type":"function","name":"balanceOf","inputs":[{"name":"account","type":"address","internalType":"address"}],"outputs":[{"name":"","type":"uint256","internalType":"uint256"}],"stateMutability":"view"},{"type":"function","name":"borrow","inputs":[{"name":"larry","type":"uint256","internalType":"uint256"},{"name":"numberOfDays","type":"uint256","internalType":"uint256"}],"outputs":[],"stateMutability":"nonpayable"},{"type":"function","name":"borrowMore","inputs":[{"name":"larry","type":"uint256","internalType":"uint256"}],"outputs":[],"stateMutability":"nonpayable"},{"type":"function","name":"burn","inputs":[{"name":"value","type":"uint256","internalType":"uint256"}],"outputs":[],"stateMutability":"nonpayable"},{"type":"function","name":"burnFrom","inputs":[{"name":"account","type":"address","internalType":"address"},{"name":"value","type":"uint256","internalType":"uint256"}],"outputs":[],"stateMutability":"nonpayable"},{"type":"function","name":"buy","inputs":[{"name":"receiver","type":"address","internalType":"address"},{"name":"amount","type":"uint256","internalType":"uint256"}],"outputs":[],"stateMutability":"nonpayable"},{"type":"function","name":"buy_fee_leverage","inputs":[],"outputs":[{"name":"","type":"uint16","internalType":"uint16"}],"stateMutability":"view"},{"type":"function","name":"closePosition","inputs":[],"outputs":[],"stateMutability":"nonpayable"},{"type":"function","name":"decimals","inputs":[],"outputs":[{"name":"","type":"uint8","internalType":"uint8"}],"stateMutability":"view"},{"type":"function","name":"extendLoan","inputs":[{"name":"numberOfDays","type":"uint256","internalType":"uint256"}],"outputs":[{"name":"","type":"uint256","internalType":"uint256"}],"stateMutability":"nonpayable"},{"type":"function","name":"flashClosePosition","inputs":[],"outputs":[],"stateMutability":"nonpayable"},{"type":"function","name":"getBacking","inputs":[],"outputs":[{"name":"","type":"uint256","internalType":"uint256"}],"stateMutability":"view"},{"type":"function","name":"getBuyAmount","inputs":[{"name":"amount","type":"uint256","internalType":"uint256"}],"outputs":[{"name":"","type":"uint256","internalType":"uint256"}],"stateMutability":"view"},{"type":"function","name":"getBuyFee","inputs":[],"outputs":[{"name":"","type":"uint256","internalType":"uint256"}],"stateMutability":"view"},{"type":"function","name":"getBuyTokens","inputs":[{"name":"amount","type":"uint256","internalType":"uint256"}],"outputs":[{"name":"","type":"uint256","internalType":"uint256"}],"stateMutability":"view"},{"type":"function","name":"getInterestFee","inputs":[{"name":"amount","type":"uint256","internalType":"uint256"},{"name":"numberOfDays","type":"uint256","internalType":"uint256"}],"outputs":[{"name":"","type":"uint256","internalType":"uint256"}],"stateMutability":"pure"},{"type":"function","name":"getLoanByAddress","inputs":[{"name":"_address","type":"address","internalType":"address"}],"outputs":[{"name":"","type":"uint256","internalType":"uint256"},{"name":"","type":"uint256","internalType":"uint256"},{"name":"","type":"uint256","internalType":"uint256"}],"stateMutability":"view"},{"type":"function","name":"getLoansExpiringByDate","inputs":[{"name":"date","type":"uint256","internalType":"uint256"}],"outputs":[{"name":"","type":"uint256","internalType":"uint256"},{"name":"","type":"uint256","internalType":"uint256"}],"stateMutability":"view"},{"type":"function","name":"getMidnightTimestamp","inputs":[{"name":"date","type":"uint256","internalType":"uint256"}],"outputs":[{"name":"","type":"uint256","internalType":"uint256"}],"stateMutability":"pure"},{"type":"function","name":"getTotalBorrowed","inputs":[],"outputs":[{"name":"","type":"uint256","internalType":"uint256"}],"stateMutability":"view"},{"type":"function","name":"getTotalCollateral","inputs":[],"outputs":[{"name":"","type":"uint256","internalType":"uint256"}],"stateMutability":"view"},{"type":"function","name":"isLoanExpired","inputs":[{"name":"_address","type":"address","internalType":"address"}],"outputs":[{"name":"","type":"bool","internalType":"bool"}],"stateMutability":"view"},{"type":"function","name":"lastLiquidationDate","inputs":[],"outputs":[{"name":"","type":"uint256","internalType":"uint256"}],"stateMutability":"view"},{"type":"function","name":"lastPrice","inputs":[],"outputs":[{"name":"","type":"uint256","internalType":"uint256"}],"stateMutability":"view"},{"type":"function","name":"leverage","inputs":[{"name":"larry","type":"uint256","internalType":"uint256"},{"name":"numberOfDays","type":"uint256","internalType":"uint256"}],"outputs":[],"stateMutability":"nonpayable"},{"type":"function","name":"leverageFee","inputs":[{"name":"larry","type":"uint256","internalType":"uint256"},{"name":"numberOfDays","type":"uint256","internalType":"uint256"}],"outputs":[{"name":"","type":"uint256","internalType":"uint256"}],"stateMutability":"view"},{"type":"function","name":"liquidate","inputs":[],"outputs":[],"stateMutability":"nonpayable"},{"type":"function","name":"name","inputs":[],"outputs":[{"name":"","type":"string","internalType":"string"}],"stateMutability":"view"},{"type":"function","name":"owner","inputs":[],"outputs":[{"name":"","type":"address","internalType":"address"}],"stateMutability":"view"},{"type":"function","name":"pendingOwner","inputs":[],"outputs":[{"name":"","type":"address","internalType":"address"}],"stateMutability":"view"},{"type":"function","name":"removeCollateral","inputs":[{"name":"amount","type":"uint256","internalType":"uint256"}],"outputs":[],"stateMutability":"nonpayable"},{"type":"function","name":"renounceOwnership","inputs":[],"outputs":[],"stateMutability":"nonpayable"},{"type":"function","name":"repay","inputs":[{"name":"amount","type":"uint256","internalType":"uint256"}],"outputs":[],"stateMutability":"nonpayable"},{"type":"function","name":"sell","inputs":[{"name":"tokens","type":"uint256","internalType":"uint256"}],"outputs":[],"stateMutability":"nonpayable"},{"type":"function","name":"sell_fee","inputs":[],"outputs":[{"name":"","type":"uint16","internalType":"uint16"}],"stateMutability":"view"},{"type":"function","name":"setBuyFee","inputs":[{"name":"amount","type":"uint16","internalType":"uint16"}],"outputs":[],"stateMutability":"nonpayable"},{"type":"function","name":"setBuyFeeLeverage","inputs":[{"name":"amount","type":"uint16","internalType":"uint16"}],"outputs":[],"stateMutability":"nonpayable"},{"type":"function","name":"setFeeAddress","inputs":[{"name":"_address","type":"address","internalType":"address"}],"outputs":[],"stateMutability":"nonpayable"},{"type":"function","name":"setSellFee","inputs":[{"name":"amount","type":"uint16","internalType":"uint16"}],"outputs":[],"stateMutability":"nonpayable"},{"type":"function","name":"setStart","inputs":[{"name":"amount","type":"uint256","internalType":"uint256"},{"name":"burnAmount","type":"uint256","internalType":"uint256"}],"outputs":[],"stateMutability":"nonpayable"},{"type":"function","name":"start","inputs":[],"outputs":[{"name":"","type":"bool","internalType":"bool"}],"stateMutability":"view"},{"type":"function","name":"symbol","inputs":[],"outputs":[{"name":"","type":"string","internalType":"string"}],"stateMutability":"view"},{"type":"function","name":"totalSupply","inputs":[],"outputs":[{"name":"","type":"uint256","internalType":"uint256"}],"stateMutability":"view"},{"type":"function","name":"transfer","inputs":[{"name":"to","type":"address","internalType":"address"},{"name":"value","type":"uint256","internalType":"uint256"}],"outputs":[{"name":"","type":"bool","internalType":"bool"}],"stateMutability":"nonpayable"},{"type":"function","name":"transferFrom","inputs":[{"name":"from","type":"address","internalType":"address"},{"name":"to","type":"address","internalType":"address"},{"name":"value","type":"uint256","internalType":"uint256"}],"outputs":[{"name":"","type":"bool","internalType":"bool"}],"stateMutability":"nonpayable"},{"type":"function","name":"transferOwnership","inputs":[{"name":"newOwner","type":"address","internalType":"address"}],"outputs":[],"stateMutability":"nonpayable"},{"type":"event","name":"Approval","inputs":[{"name":"owner","type":"address","indexed":true,"internalType":"address"},{"name":"spender","type":"address","indexed":true,"internalType":"address"},{"name":"value","type":"uint256","indexed":false,"internalType":"uint256"}],"anonymous":false},{"type":"event","name":"BuyFeeUpdated","inputs":[{"name":"buyFee","type":"uint256","indexed":false,"internalType":"uint256"}],"anonymous":false},{"type":"event","name":"FeeAddressUpdated","inputs":[{"name":"_address","type":"address","indexed":false,"internalType":"address"}],"anonymous":false},{"type":"event","name":"LeverageFeeUpdated","inputs":[{"name":"leverageFee","type":"uint256","indexed":false,"internalType":"uint256"}],"anonymous":false},{"type":"event","name":"Liquidate","inputs":[{"name":"time","type":"uint256","indexed":false,"internalType":"uint256"},{"name":"amount","type":"uint256","indexed":false,"internalType":"uint256"}],"anonymous":false},{"type":"event","name":"LoanDataUpdate","inputs":[{"name":"collateralByDate","type":"uint256","indexed":false,"internalType":"uint256"},{"name":"borrowedByDate","type":"uint256","indexed":false,"internalType":"uint256"},{"name":"totalBorrowed","type":"uint256","indexed":false,"internalType":"uint256"},{"name":"totalCollateral","type":"uint256","indexed":false,"internalType":"uint256"}],"anonymous":false},{"type":"event","name":"MaxUpdated","inputs":[{"name":"max","type":"uint256","indexed":false,"internalType":"uint256"}],"anonymous":false},{"type":"event","name":"OwnershipTransferStarted","inputs":[{"name":"previousOwner","type":"address","indexed":true,"internalType":"address"},{"name":"newOwner","type":"address","indexed":true,"internalType":"address"}],"anonymous":false},{"type":"event","name":"OwnershipTransferred","inputs":[{"name":"previousOwner","type":"address","indexed":true,"internalType":"address"},{"name":"newOwner","type":"address","indexed":true,"internalType":"address"}],"anonymous":false},{"type":"event","name":"Price","inputs":[{"name":"time","type":"uint256","indexed":false,"internalType":"uint256"},{"name":"price","type":"uint256","indexed":false,"internalType":"uint256"},{"name":"volumeInLarry","type":"uint256","indexed":false,"internalType":"uint256"}],"anonymous":false},{"type":"event","name":"SellFeeUpdated","inputs":[{"name":"sellFee","type":"uint256","indexed":false,"internalType":"uint256"}],"anonymous":false},{"type":"event","name":"Started","inputs":[{"name":"started","type":"bool","indexed":false,"internalType":"bool"}],"anonymous":false},{"type":"event","name":"Transfer","inputs":[{"name":"from","type":"address","indexed":true,"internalType":"address"},{"name":"to","type":"address","indexed":true,"internalType":"address"},{"name":"value","type":"uint256","indexed":false,"internalType":"uint256"}],"anonymous":false},{"type":"event","name":"UserLoanDataUpdate","inputs":[{"name":"user","type":"address","indexed":false,"internalType":"address"},{"name":"loan","type":"tuple","indexed":false,"internalType":"struct MEME.Loan","components":[{"name":"collateral","type":"uint256","internalType":"uint256"},{"name":"borrowed","type":"uint256","internalType":"uint256"},{"name":"endDate","type":"uint256","internalType":"uint256"},{"name":"numberOfDays","type":"uint256","internalType":"uint256"}]}],"anonymous":false},{"type":"error","name":"AddressEmptyCode","inputs":[{"name":"target","type":"address","internalType":"address"}]},{"type":"error","name":"AddressInsufficientBalance","inputs":[{"name":"account","type":"address","internalType":"address"}]},{"type":"error","name":"ERC20InsufficientAllowance","inputs":[{"name":"spender","type":"address","internalType":"address"},{"name":"allowance","type":"uint256","internalType":"uint256"},{"name":"needed","type":"uint256","internalType":"uint256"}]},{"type":"error","name":"ERC20InsufficientBalance","inputs":[{"name":"sender","type":"address","internalType":"address"},{"name":"balance","type":"uint256","internalType":"uint256"},{"name":"needed","type":"uint256","internalType":"uint256"}]},{"type":"error","name":"ERC20InvalidApprover","inputs":[{"name":"approver","type":"address","internalType":"address"}]},{"type":"error","name":"ERC20InvalidReceiver","inputs":[{"name":"receiver","type":"address","internalType":"address"}]},{"type":"error","name":"ERC20InvalidSender","inputs":[{"name":"sender","type":"address","internalType":"address"}]},{"type":"error","name":"ERC20InvalidSpender","inputs":[{"name":"spender","type":"address","internalType":"address"}]},{"type":"error","name":"FailedInnerCall","inputs":[]},{"type":"error","name":"MathOverflowedMulDiv","inputs":[]},{"type":"error","name":"OwnableInvalidOwner","inputs":[{"name":"owner","type":"address","internalType":"address"}]},{"type":"error","name":"OwnableUnauthorizedAccount","inputs":[{"name":"account","type":"address","internalType":"address"}]},{"type":"error","name":"ReentrancyGuardReentrantCall","inputs":[]},{"type":"error","name":"SafeERC20FailedOperation","inputs":[{"name":"token","type":"address","internalType":"address"}]}],"bytecode":{"object":"0x60a06040523461043957613a9f803803806100198161043e565b9283398101906060818303126104395780516001600160a01b03811691908290036104395760208101516001600160401b038111610439578361005d918301610463565b60408201519093906001600160401b0381116104395761007d9201610463565b82519091906001600160401b03811161034257600354600181811c9116801561042f575b602082101461032257601f81116103ca575b506020601f82116001146103635781929394600092610358575b50508160011b916000199060031b1c1916176003555b81516001600160401b03811161034257600454600181811c91168015610338575b602082101461032257601f81116102bd575b50602092601f8211600114610258579281929360009261024d575b50508160011b916000199060031b1c1916176004555b331561023757600680546001600160a01b0319908116909155600580549182163390811790915560405192916001600160a01b03167f8be0079c531659141344cd1fd0a4f28419497f9722a3daafe3b4186f6b6457e0600080a360016007556008805466ffffffffffffff60a01b1916640a03cf03cf60a01b17905560006009819055600a819055600b556080526135d090816104cf82396080518181816103a2015281816107110152818161083b01528181610ab201528181610dda0152818161126b0152818161183801528181611a4201528181611ae801528181611bfb015281816123130152612afd0152f35b631e4fbdf760e01b600052600060045260246000fd5b015190503880610131565b601f198216936004600052806000209160005b8681106102a5575083600195961061028c575b505050811b01600455610147565b015160001960f88460031b161c1916905538808061027e565b9192602060018192868501518155019401920161026b565b60046000527f8a35acfbc15ff81a39ae7d344fd709f28e8600b4aa8c65c6b64bfe7fe36bd19b601f830160051c81019160208410610318575b601f0160051c01905b81811061030c5750610116565b600081556001016102ff565b90915081906102f6565b634e487b7160e01b600052602260045260246000fd5b90607f1690610104565b634e487b7160e01b600052604160045260246000fd5b0151905038806100cd565b601f198216906003600052806000209160005b8181106103b257509583600195969710610399575b505050811b016003556100e3565b015160001960f88460031b161c1916905538808061038b565b9192602060018192868b015181550194019201610376565b60036000527fc2575a0e9e593c00f959f8c92f12db2869c3395a3b0502d05e2516446f71f85b601f830160051c81019160208410610425575b601f0160051c01905b81811061041957506100b3565b6000815560010161040c565b9091508190610403565b90607f16906100a1565b600080fd5b6040519190601f01601f191682016001600160401b0381118382101761034257604052565b81601f82011215610439578051906001600160401b03821161034257610492601f8301601f191660200161043e565b92828452602083830101116104395760005b8281106104b957505060206000918301015290565b806020809284010151828287010152016104a456fe6080604052600436101561001257600080fd5b6000803560e01c8063024cad3b146126005780630307c4a1146125e2578063035b7c4b146125c8578063053f14da146125aa57806306fdde03146124ed578063095ea7b3146124435780630ecbcdab146121dc57806317a5a97e1461210c57806318160ddd146120ee5780631fb87f39146120c557806323b872dd1461208c57806328a07025146120735780632b50aeb214612048578063313ce5671461202c5780633237c15814611e5f5780633421f75014611e4157806336189d4314611e1c578063371fd8e614611bc55780633be4e59814611bab5780634286fa4e14611a8f57806342966c6814611a7157806347e621b714611a2c5780634fbf3ab014611a025780635e96263c146116ff57806370a08231146116c757806370c47671146115a557806370f84ba91461155c578063715018a6146114f55780637545823b146114b057806379ba50971461142857806379cc6790146113f45780637ace2ac9146111bf5780638705fcd4146110f65780638da5cb5b146110cd5780638f818b90146110a857806395ced06f1461106657806395d89b4114610f615780639d0bf2e914610c4d5780639d41ac3a146109e4578063a9059cbb146109b2578063a925e4a414610947578063abd545bf14610922578063be96f7ca14610903578063be9a6555146108dd578063c393d0e3146107de578063c94220ab146107c3578063c962a4b514610799578063cce7ec13146106a2578063d6eb591014610684578063dd62ed3e1461062f578063e064648a1461050b578063e30c3978146104e2578063e3eb5ed3146104c3578063e4849b321461035c578063eb1edd6114610333578063f2fde38b146102c55763f61bc4971461029057600080fd5b346102c25760203660031901126102c25760206102ba6102ae612ae2565b60025490600435612cee565b604051908152f35b80fd5b50346102c25760203660031901126102c2576102df6126b0565b6102e761310b565b600680546001600160a01b0319166001600160a01b039283169081179091556005549091167f38d16b8cac22d99fc7c124b9cd0de2d3fa1faef420bfe791d8c362d765e227008380a380f35b50346102c257806003193601126102c2576008546040516001600160a01b039091168152602090f35b50346102c25760203660031901126102c257600435610379612d87565b6103816128a1565b6103a061039961038f612ae2565b6002549084612cee565b9133613207565b7f00000000000000000000000000000000000000000000000000000000000000006103e26103e86103da61ffff60085460a01c16856127dc565b043383612e00565b6064820490605082028215928082046050148417156104af57601481029381850460141417156104af576064869493926104226103e86104389411612b83565b600854919004906001600160a01b031683612e00565b6001600160a01b031690813b156104ab57606460248492836040519586948593630852cd8d60e31b85520460048401525af180156104a057610487575b5061047f82613072565b600160075580f35b8161049191612758565b61049c578138610475565b5080fd5b6040513d84823e3d90fd5b8280fd5b634e487b7160e01b86526011600452602486fd5b50346102c25760203660031901126102c25760206102ba600435612bc5565b50346102c257806003193601126102c2576006546040516001600160a01b039091168152602090f35b50346102c25760203660031901126102c25760043561ffff8116908181036104ab5761053561310b565b6103e082116105da576103cf8210610595576008805461ffff60a01b191660a09290921b61ffff60a01b169190911790556040519081527f495ee53ee22006979ebc689a00ed737d7c13b6419142f82dcaea4ed95ac1e78090602090a180f35b60405162461bcd60e51b815260206004820152601f60248201527f73656c6c20666565206d757374206265206c657373207468616e20322e3525006044820152606490fd5b60405162461bcd60e51b815260206004820152602760248201527f73656c6c20666565206d7573742062652067726561746572207468616e2046456044820152661154d7d4d1531360ca1b6064820152608490fd5b50346102c25760403660031901126102c257604061064b6126b0565b916106546126c6565b9260018060a01b031681526001602052209060018060a01b03166000526020526020604060002054604051908152f35b50346102c257806003193601126102c2576020600a54604051908152f35b50346102c25760403660031901126102c2576106bc6126b0565b602435906106c8612d87565b6106d06128a1565b6106e160ff60085460d01c16612a13565b6001600160a01b03811615610754576103e2610708600254610701612ae2565b9085612cee565b916103e861074d7f00000000000000000000000000000000000000000000000000000000000000009461073d873033896132f3565b61ffff60085460b01c16906127dc565b0490613337565b60405162461bcd60e51b815260206004820152601e60248201527f52656369657665722063616e6e6f7420626520307830206164647265737300006044820152606490fd5b50346102c25760203660031901126102c25760406020916004358152600e83522054604051908152f35b50346102c257806003193601126102c25760206102ba612ae2565b50346102c257806003193601126102c2576107f7612d87565b33808252600c60208181526040808520600101548486529290915280842054600093845292206002015461088092906108339042115b1561297e565b61085f8230337f00000000000000000000000000000000000000000000000000000000000000006132f3565b61086a813330612da9565b338452600c602052600260408520015491613276565b338152600c6020526108a76040822060036000918281558260018201558260028201550155565b338152600c6020526000805160206135b08339815191526108d2604083206040519182913383612868565b0390a161047f612f08565b50346102c257806003193601126102c257602060ff60085460d01c166040519015158152f35b50346102c25760203660031901126102c25760206102ba600435612aad565b50346102c257806003193601126102c257602061ffff60085460a01c16604051908152f35b50346102c25760203660031901126102c2576040906001600160a01b0361096c6126b0565b168152600c6020522080546109ae6001830154926003600282015491015490604051948594859094939260609260808301968352602083015260408201520152565b0390f35b50346102c25760403660031901126102c2576109d96109cf6126b0565b6024359033612da9565b602060405160018152f35b50346102c257806003193601126102c2576109fd612d87565b336000908152600c6020526040902060020154610a1b90421161082d565b610a236128a1565b338152600c6020526001604082200154338252600c602052604082205490610a4c61038f612ae2565b610a568330613207565b6063810281810460631482151715610c39576064809104910490828110610bd85782610a819161285b565b60038202821590838104600314821715610bc457600a90049083800460011417156104af5790610af8869392610ad97f0000000000000000000000000000000000000000000000000000000000000000933385612e00565b610ae66103e8821161280f565b6008546001600160a01b031683612e00565b6001600160a01b031690813b156104ab57600a60248492836040519586948593630852cd8d60e31b85520460048401525af180156104a057610baf575b5050610b5561047f92338552600c60205260026040862001549083613276565b338352600c602052610b7c6040842060036000918281558260018201558260028201550155565b338352600c6020526000805160206135b0833981519152610ba7604085206040519182913383612868565b0390a1613072565b81610bb991612758565b6104ab578238610b35565b634e487b7160e01b87526011600452602487fd5b60405162461bcd60e51b815260206004820152603360248201527f596f7520646f206e6f74206861766520656e6f75676820636f6c6c617465726160448201527236103a379031b637b9b2903837b9b4ba34b7b760691b6064820152608490fd5b634e487b7160e01b85526011600452602485fd5b50346102c25760203660031901126102c257600435610c6a612d87565b336000908152600c60205260409020600201544211610f1c578015610ed757610c916128a1565b338252600c602052600160408320015490338352600c602052604083205490338452600c60205260026040852001549062015180610cd7610cd142612bc5565b8461285b565b0490610ce382826126ff565b93610ced82612aad565b610d02600254610cfb612ae2565b9089612cee565b6063830283810460631484151715610eb457906064610d21920461285b565b818110610ec857505086925b6003860292861593878104600314851715610eb457600a9004938780046001141715610ea05760638102908104606303610ea05790610d7c85610d76606460039504809b6126dc565b946126dc565b9260405193610d8a85612726565b845260208401908152604084019087825260608501928352338b52600c60205260408b20945185555160018501555160028401555191015581610e90575b610dd56103e8821161280f565b6008547f000000000000000000000000000000000000000000000000000000000000000091610e0d916001600160a01b031683612e00565b856001600160a01b038216803b1561049c57818091602460405180948193630852cd8d60e31b8352600a8c0460048401525af180156104a057610e71575b50509084610e6c610b7c9493610e648761047f9961285b565b903390612e00565b612e40565b81610e7f9195949395612758565b610e8c5790918538610e4b565b8580fd5b610e9b823033612da9565b610dc8565b634e487b7160e01b89526011600452602489fd5b634e487b7160e01b8a52601160045260248afd5b610ed19161285b565b92610d2d565b60405162461bcd60e51b815260206004820152601760248201527f4d75737420626f72726f77206d6f7265207468616e20300000000000000000006044820152606490fd5b60405162461bcd60e51b815260206004820152601760248201527f4c6f616e20657870697265642075736520626f72726f770000000000000000006044820152606490fd5b50346102c257806003193601126102c2576040519080600454908160011c9160018116801561105c575b602084108114611048578386529081156110215750600114610fc4575b6109ae84610fb881860382612758565b60405191829182612667565b600481527f8a35acfbc15ff81a39ae7d344fd709f28e8600b4aa8c65c6b64bfe7fe36bd19b939250905b80821061100757509091508101602001610fb882610fa8565b919260018160209254838588010152019101909291610fee565b60ff191660208087019190915292151560051b85019092019250610fb89150839050610fa8565b634e487b7160e01b83526022600452602483fd5b92607f1692610f8b565b50346102c25760203660031901126102c2576109ae61108b6110866126b0565b612a5f565b604080519384526020840192909252908201529081906060820190565b50346102c257806003193601126102c257602061ffff60085460b01c16604051908152f35b50346102c257806003193601126102c2576005546040516001600160a01b039091168152602090f35b50346102c25760203660031901126102c2576111106126b0565b61111861310b565b6001600160a01b0316801561116e576020817f446e39bcf1b47cfadfaa23442cb4b34682cfe6bd9220da084894e3b1f834e4f3926bffffffffffffffffffffffff60a01b6008541617600855604051908152a180f35b60405162461bcd60e51b8152602060048201526024808201527f43616e27742073657420666565206164647265737320746f20307830206164646044820152637265737360e01b6064820152608490fd5b50346102c25760203660031901126102c2576004356111dc612d87565b338252600c602052600260408320015491338152600c602052600160408220015491338252600c602052604082205490338352600c602052600360408420015491620151808202828104620151801483151715610c395761123d90876126dc565b9461124883826126ff565b336000908152600c602052604090206002015490979061126990421161082d565b7f0000000000000000000000000000000000000000000000000000000000000000611296893033846132f3565b600389028915908a8104600314821715610ea057600a9004908a800460011417156113e05780610ae66103e86112cc931161280f565b6001600160a01b0316803b156113dc5786600a60248b836040519586948593630852cd8d60e31b85520460048401525af180156113d1576113bc575b5061134461135795889561132f61016e9a8787610e6c604098620151809e9b60039b613276565b338652600c60205286600285882001556126dc565b92338152600c602052200155429061285b565b041015611377578061136a602092613072565b6001600755604051908152f35b60405162461bcd60e51b815260206004820152601b60248201527f4c6f616e206d75737420626520756e64657220333635206461797300000000006044820152606490fd5b6113c7878092612758565b610e8c5738611308565b6040513d89823e3d90fd5b8680fd5b634e487b7160e01b88526011600452602488fd5b50346102c25760403660031901126102c2576114256114116126b0565b60243590611420823383613134565b613207565b80f35b50346102c257806003193601126102c257600654336001600160a01b039091160361149d57600680546001600160a01b0319908116909155600580543392811683179091556001600160a01b03167f8be0079c531659141344cd1fd0a4f28419497f9722a3daafe3b4186f6b6457e08380a380f35b63118cdaa760e01b815233600452602490fd5b50346102c25760203660031901126102c2576103e86020916114ea6114dc61073d6002546004356127dc565b6114e4612ae2565b906127ef565b905004604051908152f35b50346102c257806003193601126102c25761150e61310b565b600680546001600160a01b031990811690915560058054918216905581906001600160a01b03167f8be0079c531659141344cd1fd0a4f28419497f9722a3daafe3b4186f6b6457e08280a380f35b50346102c25760203660031901126102c257602061159b61157b6126b0565b6001600160a01b03166000908152600c6020526040902060020154421190565b6040519015158152f35b50346102c25760203660031901126102c25760043561ffff8116908181036104ab576115cf61310b565b6103e08211611674576103cf821061162f576008805461ffff60b01b191660b09290921b61ffff60b01b169190911790556040519081527f7c1445c98b278c9970d007fca6048704bcb25af7cc4a04eb56565d9a9f149ca390602090a180f35b60405162461bcd60e51b815260206004820152601e60248201527f62757920666565206d757374206265206c657373207468616e20322e352500006044820152606490fd5b60405162461bcd60e51b815260206004820152602560248201527f62757920666565206d7573742062652067726561746572207468616e20464545604482015264535f42555960d81b6064820152608490fd5b50346102c25760203660031901126102c2576020906040906001600160a01b036116ef6126b0565b1681528083522054604051908152f35b50346102c25761170e3661264c565b90611717612d87565b61172860ff60085460d01c16612a13565b61173561016e831061277a565b338352600c6020526040832060405161174d81612726565b8154815260606003600184015493846020850152600281015460408501520154910152611962575b61177d6128a1565b62015180820282810462015180148315171561194e576117a16117a69142906126dc565b612bc5565b916117b181836129e9565b906117bc828461285b565b60038302928015938181046003148517156113e057600a9004938180046001141715610bc45760638202828104606314831517156113e057606490049161181b61180960648304846126dc565b91600254611815612ae2565b91612cee565b94301561193a57906118608993926118338830613337565b610ad97f0000000000000000000000000000000000000000000000000000000000000000933033866132f3565b6001600160a01b031690813b156104ab57600a60248492836040519586948593630852cd8d60e31b85520460048401525af180156104a057611921575b50509084826118b261047f9786600396612e40565b604051946118bf86612726565b8552602085019081526040850191825260608501928352338852600c602052604088209451855551600185015551600284015551910155338352600c6020526000805160206135b0833981519152610ba7604085206040519182913383612868565b8161192e91949394612758565b610e8c5790853861189d565b63ec442f0560e01b89526004899052602489fd5b634e487b7160e01b84526011600452602484fd5b336000908152600c602052604090206002015442116119d6575b338352600c6020526001604084200154156117755760405162461bcd60e51b815260206004820152601960248201527f557365206163636f756e742077697468206e6f206c6f616e73000000000000006044820152606490fd5b338352600c6020526119fd6040842060036000918281558260018201558260028201550155565b61197c565b50346102c25760203660031901126102c25760406020916004358152600d83522054604051908152f35b50346102c257806003193601126102c2576040517f00000000000000000000000000000000000000000000000000000000000000006001600160a01b03168152602090f35b50346102c25760203660031901126102c25761142560043533613207565b50346102c257611a9e3661264c565b90611aa761310b565b6008546001600160a01b03811615611b6f5760ff8160d01c16611b6b5760ff60d01b1916600160d01b17600855611add42612bc5565b600f55611b0c8130337f00000000000000000000000000000000000000000000000000000000000000006132f3565b3315611b575790611b20611b299233613337565b61dead33613393565b7f4f366f0dc5cd876e456f089309e0c62fc2bc0e116c6f6ae308c392b4ad45b5b9602060405160018152a180f35b63ec442f0560e01b83526004839052602483fd5b8380fd5b60405162461bcd60e51b81526020600482015260146024820152734d7573742073657420666565206164647265737360601b6044820152606490fd5b50346102c25760206102ba611bbf3661264c565b906129e9565b50346102c25760203660031901126102c257600435611be2612d87565b338252600c602052600160408320015490611c1f8130337f00000000000000000000000000000000000000000000000000000000000000006132f3565b80821115611dcb578015611d8f57336000908152600c60205260409020600201544211611d3657611c5f816000805160206135708339815191529361285b565b338452600c6020526001604085200155338352600c602052611cc8600260408520015491828552600e6020526040852054838652600e6020526040862055828552600d602052611cb381604087205461285b565b838652600d602052604086205560095461285b565b6009819055600a54828552600e6020908152604080872054948752600d825280872054815195865291850191909152830191909152606082015280608081015b0390a1338152600c6020526000805160206135b08339815191526108d2604083206040519182913383612868565b60405162461bcd60e51b815260206004820152602b60248201527f596f7572206c6f616e20686173206265656e206c6971756964617465642c206360448201526a616e6e6f7420726570617960a81b6064820152608490fd5b60405162461bcd60e51b81526020600482015260146024820152734d75737420726570617920736f6d657468696e6760601b6044820152606490fd5b60405162461bcd60e51b8152602060048201526024808201527f4d757374207265706179206c657373207468616e20626f72726f77656420616d6044820152631bdd5b9d60e21b6064820152608490fd5b50346102c257806003193601126102c257602061ffff60085460c01c16604051908152f35b50346102c257806003193601126102c2576020600f54604051908152f35b50346102c25760203660031901126102c257600435611e7c612d87565b336000908152600c6020526040902060020154611e9a90421161082d565b611ea26128a1565b338252600c6020526040822054338352600c602052611edd611ecc8360016040872001549361285b565b611ed4612ae2565b60025491612cee565b60638102908082046063149015171561194e576064900410611fdc5760008051602061357083398151915290338352600c602052611f1f81604085205461285b565b338452600c6020526040842055611f37813330612da9565b338352600c6020526002604084200154808452600e602052611f5d82604086205461285b565b818552600e6020526040852055808452600d6020526040842054818552600d6020526040852055611d08611f9a6009549384600955600a5461285b565b80600a55828652600e6020526040862054928652600d602052604086205493604051948594859094939260609260808301968352602083015260408201520152565b60405162461bcd60e51b815260206004820152602260248201527f526571756972652039392520636f6c6c61746572616c697a6174696f6e207261604482015261746560f01b6064820152608490fd5b50346102c257806003193601126102c257602060405160128152f35b50346102c25760203660031901126102c25760206102ba60025461206a612ae2565b90600435612cee565b50346102c257806003193601126102c2576114256128a1565b50346102c25760603660031901126102c2576109d96120a96126b0565b6120b16126c6565b604435916120c0833383613134565b612da9565b50346102c25760203660031901126102c2576103e86020916114ea61073d60025461206a612ae2565b50346102c257806003193601126102c2576020600254604051908152f35b50346102c25760203660031901126102c25760043561ffff8116908181036104ab5761213661310b565b6019821161218c576008805461ffff60c01b191660c09290921b61ffff60c01b169190911790556040519081527fd4e469371f09a592c9c4fde36ed11fd123a8cc55d93bd2920ea6ad544dff439590602090a180f35b60405162461bcd60e51b815260206004820152602260248201527f6c657665726167652062757920666565206d757374206265206c65737320322e604482015261352560f01b6064820152608490fd5b50346102c2576121eb3661264c565b91906121f5612d87565b61220261016e841061277a565b336000908152600c60205260409020600201544211612417575b338252600c60205260016040832001546123d2576122386128a1565b6201518083028381046201518014841517156123be576117a161225c9142906126dc565b61226684836126ff565b91600383028315908481046003148217156104af57600a9004908480046001141715610c395761229582612aad565b916063810290808204606314901517156104af5760649004956003604051916122bd83612726565b84835260208301898152604084019087825260608501928352338a52600c60205260408a209451855551600185015551600284015551910155612301823033612da9565b61230e6103e8821161280f565b6123477f000000000000000000000000000000000000000000000000000000000000000091610ae6612340878a61285b565b3385612e00565b6001600160a01b0316803b156123ba57848091602460405180948193630852cd8d60e31b8352600a8a0460048401525af180156123af57612393575b5090610b7c9161047f9495612e40565b90846123a661047f96610b7c9594612758565b94509091612383565b6040513d87823e3d90fd5b8480fd5b634e487b7160e01b83526011600452602483fd5b60405162461bcd60e51b815260206004820152601d60248201527f55736520626f72726f774d6f726520746f20626f72726f77206d6f72650000006044820152606490fd5b338252600c60205261243e6040832060036000918281558260018201558260028201550155565b61221c565b50346102c25760403660031901126102c25761245d6126b0565b6024359033156124d9576001600160a01b03169182156124c55760408291338152600160205281812085825260205220556040519081527f8c5be1e5ebec7d5bd14f71427d1e84f3dd0314c0f7b2291e5b200ac8c7c3b92560203392a3602060405160018152f35b634a1406b160e11b81526004819052602490fd5b63e602df0560e01b83526004839052602483fd5b50346102c257806003193601126102c2576040519080600354908160011c916001811680156125a0575b602084108114611048578386529081156110215750600114612543576109ae84610fb881860382612758565b600381527fc2575a0e9e593c00f959f8c92f12db2869c3395a3b0502d05e2516446f71f85b939250905b80821061258657509091508101602001610fb882610fa8565b91926001816020925483858801015201910190929161256d565b92607f1692612517565b50346102c257806003193601126102c2576020600b54604051908152f35b50346102c25760206102ba6125dc3661264c565b906126ff565b50346102c257806003193601126102c2576020600954604051908152f35b50346102c25760203660031901126102c257604090816004359161262383612bc5565b8152600d6020526126378282205493612bc5565b8152600e602052205482519182526020820152f35b6040906003190112612662576004359060243590565b600080fd5b91909160208152825180602083015260005b81811061269a575060409293506000838284010152601f8019910116010190565b8060208092870101516040828601015201612679565b600435906001600160a01b038216820361266257565b602435906001600160a01b038216820361266257565b919082018092116126e957565b634e487b7160e01b600052601160045260246000fd5b9061270990612be5565b66038d7ea4c6800081018091116126e95761272391612c69565b90565b6080810190811067ffffffffffffffff82111761274257604052565b634e487b7160e01b600052604160045260246000fd5b90601f8019910116810190811067ffffffffffffffff82111761274257604052565b1561278157565b60405162461bcd60e51b815260206004820152602d60248201527f4d617820626f72726f772f657874656e73696f6e206d7573742062652033363560448201526c2064617973206f72206c65737360981b6064820152608490fd5b818102929181159184041417156126e957565b81156127f9570490565b634e487b7160e01b600052601260045260246000fd5b1561281657565b60405162461bcd60e51b815260206004820152601d60248201527f46656573206d75737420626520686967686572207468616e206d696e2e0000006044820152606490fd5b919082039182116126e957565b6001600160a01b039091168152815460208201526001820154604082015260028201546060820152600390910154608082015260a00190565b6000805b600f5491428310156128fa576128cd6128e39184600052600e602052604060002054906126dc565b9183600052600d602052604060002054906126dc565b916201518081018091116126e957600f55906128a5565b9091508061295f575b508061290c5750565b6129188160095461285b565b600955600f546201517f198101919082116126e9577f253e5385159062a101837d58c10ad4694c58979ebc3ba6b5cb2cbba2fe4616929160409182519182526020820152a1565b8061296f61297892600a5461285b565b600a5530613207565b38612903565b1561298557565b60405162461bcd60e51b815260206004820152603660248201527f596f7572206c6f616e20686173206265656e206c6971756964617465642c206e6044820152756f20636f6c6c61746572616c20746f2072656d6f766560501b6064820152608490fd5b612a0d612723926103e8612a0661ffff60085460c01c16856127dc565b04926126ff565b906126dc565b15612a1a57565b60405162461bcd60e51b815260206004820152601b60248201527f54726164696e67206d75737420626520696e697469616c697a656400000000006044820152606490fd5b6001600160a01b03166000818152600c60205260409020600201549091904211612aa3576000918252600c6020526040909120805460018201546002909201549092565b6000915081908190565b612ac2612ab8612ae2565b91600254906127dc565b600019820191908183116126e95761272392612add916126dc565b6127ef565b6040516370a0823160e01b81523060048201526020816024817f00000000000000000000000000000000000000000000000000000000000000006001600160a01b03165afa8015612b7757600090612b43575b6127239150600954906126dc565b506020813d602011612b6f575b81612b5d60209383612758565b81010312612662576127239051612b35565b3d9150612b50565b6040513d6000823e3d90fd5b15612b8a57565b60405162461bcd60e51b815260206004820152601360248201527236bab9ba103a3930b2329037bb32b91036b4b760691b6044820152606490fd5b612bd5906201518081069061285b565b6201518081018091116126e95790565b60009080668a8e4b1a3d8000029160001982668a8e4b1a3d800009838082109103818114612c5c570361016d1115612c4d57509061016d7f4ff4c73064ff4c73064ff4c73064ff4c73064ff4c73064ff4c73064ff4c7306592668a8e4b1a3d80000990030290565b63227bc15360e01b8152600490fd5b505061016d929150500490565b91909160008382029160001985820991838084109303928084039314612cdb5782670de0b6b3a76400001115612c4d57507faccb18165bd6fe31ae1cf318dc5b51eee0e1ba569b88cd74c1773b91fac106699394670de0b6b3a7640000910990828211900360ee1b910360121c170290565b5050670de0b6b3a7640000909104925050565b90918282029160001984820993838086109503948086039514612d7a5784831115612d6957829109816000038216809204600281600302188082026002030280820260020302808202600203028082026002030280820260020302809102600203029360018380600003040190848311900302920304170290565b63227bc15360e01b60005260046000fd5b50509061272392506127ef565b600260075414612d98576002600755565b633ee5aeb560e01b60005260046000fd5b91906001600160a01b03831615612dea576001600160a01b03811615612dd457612dd292613393565b565b63ec442f0560e01b600052600060045260246000fd5b634b637e8f60e11b600052600060045260246000fd5b60405163a9059cbb60e01b60208201526001600160a01b039092166024830152604480830193909352918152612dd291612e3b606483612758565b613457565b91612f03612ebd612eb06000805160206135708339815191529584600052600e602052612e72866040600020546126dc565b85600052600e60205260406000205584600052600d602052612e99816040600020546126dc565b85600052600d6020526040600020556009546126dc565b9384600955600a546126dc565b80600a5582600052600e60205260406000205492600052600d60205260406000205493604051948594859094939260609260808301968352602083015260408201520152565b0390a1565b612f10612ae2565b670de0b6b3a7640000810290808204670de0b6b3a764000014901517156126e957600254612f3d916127ef565b306000526000602052604060002054600a5411612fec5780600b5411612f9b576060817f4afcb4a87cdbd9974efdb92ee48bc8d7cd0ae4bf217004db3d080cbaee652ca792600b5560405190428252602082015260006040820152a1565b60405162461bcd60e51b815260206004820152602360248201527f546865207072696365206f6620746f6b656e732063616e6e6f7420646563726560448201526261736560e81b6064820152608490fd5b60405162461bcd60e51b815260206004820152605260248201527f54686520746f6b656e732062616c616e6365206f662074686520636f6e74726160448201527f6374206d7573742062652067726561746572207468616e206f7220657175616c606482015271081d1bc81d1a194818dbdb1b185d195c985b60721b608482015260a490fd5b61307a612ae2565b670de0b6b3a7640000810290808204670de0b6b3a764000014901517156126e9576002546130a7916127ef565b90306000526000602052604060002054600a5411612fec5781600b5411612f9b57600b8290556040805142815260208101939093528201527f4afcb4a87cdbd9974efdb92ee48bc8d7cd0ae4bf217004db3d080cbaee652ca7908060608101612f03565b6005546001600160a01b0316330361311f57565b63118cdaa760e01b6000523360045260246000fd5b6001600160a01b039081166000818152600160208181526040808420958716845294905292902054939291840161316c575b50505050565b8284106131e25780156131cc576001600160a01b038216156131b657600052600160205260406000209060018060a01b031660005260205260406000209103905538808080613166565b634a1406b160e11b600052600060045260246000fd5b63e602df0560e01b600052600060045260246000fd5b508290637dc7a0d960e11b60005260018060a01b031660045260245260445260646000fd5b6001600160a01b03168015612dea5760009181835282602052604083205481811061325d5781600080516020613590833981519152926020928587528684520360408620558060025403600255604051908152a3565b6064939263391434e360e21b8452600452602452604452fd5b91612f03612ebd6132e66000805160206135708339815191529584600052600e6020526132a88660406000205461285b565b85600052600e60205260406000205584600052600d6020526132cf8160406000205461285b565b85600052600d60205260406000205560095461285b565b9384600955600a5461285b565b6040516323b872dd60e01b60208201526001600160a01b039283166024820152929091166044830152606480830193909352918152612dd291612e3b608483612758565b6000805160206135908339815191526020600092613357856002546126dc565b6002556001600160a01b0316938415841461337e5780600254036002555b604051908152a3565b84845283825260408420818154019055613375565b6001600160a01b031690816133fc576020600080516020613590833981519152916133c0856002546126dc565b6002555b6001600160a01b031693846133e4578060025403600255604051908152a3565b84600052600082526040600020818154019055613375565b81600052600060205260406000205483811061343a5760008051602061359083398151915291846020928560005260008452036040600020556133c4565b91905063391434e360e21b60005260045260245260445260646000fd5b81516001600160a01b0390911691600091829160200182855af13d15613502573d67ffffffffffffffff8111612742576134b491604051916134a36020601f19601f8401160184612758565b82523d6000602084013e5b8361350e565b80519081151591826134de575b50506134ca5750565b635274afe760e01b60005260045260246000fd5b819250906020918101031261266257602001518015908115036126625738806134c1565b6134b4906060906134ae565b90613534575080511561352357805190602001fd5b630a12f52160e11b60005260046000fd5b81511580613566575b613545575090565b639996b31560e01b60009081526001600160a01b0391909116600452602490fd5b50803b1561353d56feaec00f5213a37254bc68a26b0685d1a5b2bf513e1e587c94c7df7f4a62b56c9cddf252ad1be2c89b69c2b068fc378daa952ba7f163c4a11628f55a4df523b3ef7f3554c5be051b74dc69453d2e2a7067332b6e3c90c0cc7f0c2c7807ce5370f3","linkReferences":{}},"methodIdentifiers":{"BorrowedByDate(uint256)":"4fbf3ab0","CollateralByDate(uint256)":"c962a4b5","FEE_ADDRESS()":"eb1edd61","LARRYtoTOKENS(uint256)":"2b50aeb2","LARRYtoTOKENSCeil(uint256)":"be96f7ca","Loans(address)":"a925e4a4","TOKENStoLARRY(uint256)":"f61bc497","acceptOwnership()":"79ba5097","allowance(address,address)":"dd62ed3e","approve(address,uint256)":"095ea7b3","backingToken()":"47e621b7","balanceOf(address)":"70a08231","borrow(uint256,uint256)":"0ecbcdab","borrowMore(uint256)":"9d0bf2e9","burn(uint256)":"42966c68","burnFrom(address,uint256)":"79cc6790","buy(address,uint256)":"cce7ec13","buy_fee_leverage()":"36189d43","closePosition()":"c393d0e3","decimals()":"313ce567","extendLoan(uint256)":"7ace2ac9","flashClosePosition()":"9d41ac3a","getBacking()":"c94220ab","getBuyAmount(uint256)":"1fb87f39","getBuyFee()":"8f818b90","getBuyTokens(uint256)":"7545823b","getInterestFee(uint256,uint256)":"035b7c4b","getLoanByAddress(address)":"95ced06f","getLoansExpiringByDate(uint256)":"024cad3b","getMidnightTimestamp(uint256)":"e3eb5ed3","getTotalBorrowed()":"0307c4a1","getTotalCollateral()":"d6eb5910","isLoanExpired(address)":"70f84ba9","lastLiquidationDate()":"3421f750","lastPrice()":"053f14da","leverage(uint256,uint256)":"5e96263c","leverageFee(uint256,uint256)":"3be4e598","liquidate()":"28a07025","name()":"06fdde03","owner()":"8da5cb5b","pendingOwner()":"e30c3978","removeCollateral(uint256)":"3237c158","renounceOwnership()":"715018a6","repay(uint256)":"371fd8e6","sell(uint256)":"e4849b32","sell_fee()":"abd545bf","setBuyFee(uint16)":"70c47671","setBuyFeeLeverage(uint16)":"17a5a97e","setFeeAddress(address)":"8705fcd4","setSellFee(uint16)":"e064648a","setStart(uint256,uint256)":"4286fa4e","start()":"be9a6555","symbol()":"95d89b41","totalSupply()":"18160ddd","transfer(address,uint256)":"a9059cbb","transferFrom(address,address,uint256)":"23b872dd","transferOwnership(address)":"f2fde38b"},"id":13}